{
  "_format": "hh-sol-artifact-1",
  "contractName": "Voting",
  "sourceName": "contracts/Voting.sol",
  "abi": [
    {
      "inputs": [],
      "stateMutability": "nonpayable",
      "type": "constructor"
    },
    {
      "inputs": [],
      "name": "AlreadyVoted",
      "type": "error"
    },
    {
      "inputs": [],
      "name": "EndTimeInPast",
      "type": "error"
    },
    {
      "inputs": [],
      "name": "InvalidCandidate",
      "type": "error"
    },
    {
      "inputs": [],
      "name": "InvalidState",
      "type": "error"
    },
    {
      "inputs": [],
      "name": "NotEnoughCandidates",
      "type": "error"
    },
    {
      "inputs": [],
      "name": "NotOwner",
      "type": "error"
    },
    {
      "inputs": [],
      "name": "VotingClosed",
      "type": "error"
    },
    {
      "anonymous": false,
      "inputs": [
        {
          "indexed": true,
          "internalType": "uint256",
          "name": "id",
          "type": "uint256"
        }
      ],
      "name": "CandidateAdded",
      "type": "event"
    },
    {
      "anonymous": false,
      "inputs": [
        {
          "indexed": true,
          "internalType": "uint256",
          "name": "id",
          "type": "uint256"
        }
      ],
      "name": "CandidateRemoved",
      "type": "event"
    },
    {
      "anonymous": false,
      "inputs": [
        {
          "indexed": true,
          "internalType": "address",
          "name": "voter",
          "type": "address"
        },
        {
          "indexed": true,
          "internalType": "uint256",
          "name": "candidateId",
          "type": "uint256"
        },
        {
          "indexed": false,
          "internalType": "uint256",
          "name": "timestamp",
          "type": "uint256"
        }
      ],
      "name": "Voted",
      "type": "event"
    },
    {
      "anonymous": false,
      "inputs": [
        {
          "indexed": false,
          "internalType": "string",
          "name": "reason",
          "type": "string"
        }
      ],
      "name": "VotingEnded",
      "type": "event"
    },
    {
      "anonymous": false,
      "inputs": [
        {
          "indexed": false,
          "internalType": "uint256",
          "name": "endTime",
          "type": "uint256"
        }
      ],
      "name": "VotingStarted",
      "type": "event"
    },
    {
      "inputs": [],
      "name": "addCandidate",
      "outputs": [],
      "stateMutability": "nonpayable",
      "type": "function"
    },
    {
      "inputs": [],
      "name": "candidateCount",
      "outputs": [
        {
          "internalType": "uint256",
          "name": "",
          "type": "uint256"
        }
      ],
      "stateMutability": "view",
      "type": "function"
    },
    {
      "inputs": [],
      "name": "endTime",
      "outputs": [
        {
          "internalType": "uint256",
          "name": "",
          "type": "uint256"
        }
      ],
      "stateMutability": "view",
      "type": "function"
    },
    {
      "inputs": [],
      "name": "endVoting",
      "outputs": [],
      "stateMutability": "nonpayable",
      "type": "function"
    },
    {
      "inputs": [],
      "name": "getMyVote",
      "outputs": [
        {
          "internalType": "bool",
          "name": "voted",
          "type": "bool"
        },
        {
          "internalType": "uint256",
          "name": "candidateId",
          "type": "uint256"
        }
      ],
      "stateMutability": "view",
      "type": "function"
    },
    {
      "inputs": [],
      "name": "getResults",
      "outputs": [
        {
          "internalType": "uint256[]",
          "name": "ids",
          "type": "uint256[]"
        },
        {
          "internalType": "uint256[]",
          "name": "voteCounts",
          "type": "uint256[]"
        }
      ],
      "stateMutability": "view",
      "type": "function"
    },
    {
      "inputs": [],
      "name": "getState",
      "outputs": [
        {
          "internalType": "enum Voting.State",
          "name": "",
          "type": "uint8"
        }
      ],
      "stateMutability": "view",
      "type": "function"
    },
    {
      "inputs": [
        {
          "internalType": "address",
          "name": "",
          "type": "address"
        }
      ],
      "name": "hasVoted",
      "outputs": [
        {
          "internalType": "bool",
          "name": "",
          "type": "bool"
        }
      ],
      "stateMutability": "view",
      "type": "function"
    },
    {
      "inputs": [
        {
          "internalType": "uint256",
          "name": "",
          "type": "uint256"
        }
      ],
      "name": "isActive",
      "outputs": [
        {
          "internalType": "bool",
          "name": "",
          "type": "bool"
        }
      ],
      "stateMutability": "view",
      "type": "function"
    },
    {
      "inputs": [],
      "name": "nextCandidateId",
      "outputs": [
        {
          "internalType": "uint256",
          "name": "",
          "type": "uint256"
        }
      ],
      "stateMutability": "view",
      "type": "function"
    },
    {
      "inputs": [],
      "name": "owner",
      "outputs": [
        {
          "internalType": "address",
          "name": "",
          "type": "address"
        }
      ],
      "stateMutability": "view",
      "type": "function"
    },
    {
      "inputs": [
        {
          "internalType": "uint256",
          "name": "id",
          "type": "uint256"
        }
      ],
      "name": "removeCandidate",
      "outputs": [],
      "stateMutability": "nonpayable",
      "type": "function"
    },
    {
      "inputs": [
        {
          "internalType": "uint256",
          "name": "_endTime",
          "type": "uint256"
        }
      ],
      "name": "startVoting",
      "outputs": [],
      "stateMutability": "nonpayable",
      "type": "function"
    },
    {
      "inputs": [
        {
          "internalType": "uint256",
          "name": "id",
          "type": "uint256"
        }
      ],
      "name": "vote",
      "outputs": [],
      "stateMutability": "nonpayable",
      "type": "function"
    },
    {
      "inputs": [
        {
          "internalType": "address",
          "name": "",
          "type": "address"
        }
      ],
      "name": "votedFor",
      "outputs": [
        {
          "internalType": "uint256",
          "name": "",
          "type": "uint256"
        }
      ],
      "stateMutability": "view",
      "type": "function"
    },
    {
      "inputs": [
        {
          "internalType": "uint256",
          "name": "",
          "type": "uint256"
        }
      ],
      "name": "votes",
      "outputs": [
        {
          "internalType": "uint256",
          "name": "",
          "type": "uint256"
        }
      ],
      "stateMutability": "view",
      "type": "function"
    }
  ],
  "bytecode": "0x608060405234801562000010575f80fd5b506200002d67ce34468a8935a1de60c01b620000d660201b60201c565b6200004967b6617b4cdabfadca60c01b620000d660201b60201c565b335f806101000a81548173ffffffffffffffffffffffffffffffffffffffff021916908373ffffffffffffffffffffffffffffffffffffffff160217905550620000a4674a7bb7dbf0ee49c760c01b620000d660201b60201c565b5f8060146101000a81548160ff02191690836002811115620000cb57620000ca620000d9565b5b021790555062000106565b50565b7f4e487b71000000000000000000000000000000000000000000000000000000005f52602160045260245ffd5b611e7580620001145f395ff3fe608060405234801561000f575f80fd5b50600436106100fe575f3560e01c806375043ebb11610095578063a9a981a311610064578063a9a981a314610288578063c3403ddf146102a6578063d16ff4c8146102b0578063f594f13f146102ce576100fe565b806375043ebb1461021157806382afd23b1461021b5780638cb647d31461024b5780638da5cb5b1461026a576100fe565b80633197cbb6116100d15780633197cbb6146101885780633d2f5bda146101a65780634717f97c146101c25780635df81330146101e1576100fe565b80630121b93f1461010257806309e9d7e21461011e57806309eef43e1461013a5780631865c57d1461016a575b5f80fd5b61011c60048036038101906101179190611a00565b6102fe565b005b61013860048036038101906101339190611a00565b610741565b005b610154600480360381019061014f9190611a85565b610a97565b6040516101619190611aca565b60405180910390f35b610172610ab4565b60405161017f9190611b56565b60405180910390f35b610190610bd0565b60405161019d9190611b7e565b60405180910390f35b6101c060048036038101906101bb9190611a00565b610bd6565b005b6101ca610f99565b6040516101d8929190611c4e565b60405180910390f35b6101fb60048036038101906101f69190611a00565b6112e5565b6040516102089190611b7e565b60405180910390f35b6102196112fa565b005b61023560048036038101906102309190611a00565b611606565b6040516102429190611aca565b60405180910390f35b610253611623565b604051610261929190611c83565b60405180910390f35b6102726116f1565b60405161027f9190611cb9565b60405180910390f35b610290611714565b60405161029d9190611b7e565b60405180910390f35b6102ae61171a565b005b6102b86119ab565b6040516102c59190611b7e565b60405180910390f35b6102e860048036038101906102e39190611a85565b6119b1565b6040516102f59190611b7e565b60405180910390f35b6103126761ff5e7421f5c23c60c01b6119c6565b61032667c6b9bdebf7fe71bc60c01b6119c6565b61033a67956cb5c8c273299860c01b6119c6565b6001600281111561034e5761034d611ae3565b5b5f60149054906101000a900460ff16600281111561036f5761036e611ae3565b5b146103ba576103886736086935d21aadc460c01b6119c6565b6040517fbaf3f0f700000000000000000000000000000000000000000000000000000000815260040160405180910390fd5b6103ce674ad2f646b670c9d560c01b6119c6565b6103e26785fe9c5e02b3830760c01b6119c6565b6103f66782d16a838e45370160c01b6119c6565b60015442106104455761041367b97839ffad440d1360c01b6119c6565b6040517f66b6cb4a00000000000000000000000000000000000000000000000000000000815260040160405180910390fd5b610459673250205a00dd38bc60c01b6119c6565b61046d67535ff69b95eba57360c01b6119c6565b6104816725d0fd3ac5de73b560c01b6119c6565b60065f3373ffffffffffffffffffffffffffffffffffffffff1673ffffffffffffffffffffffffffffffffffffffff1681526020019081526020015f205f9054906101000a900460ff1615610516576104e467e69919c456a41dc260c01b6119c6565b6040517f7c9a1cf900000000000000000000000000000000000000000000000000000000815260040160405180910390fd5b61052a67cd8f24b30cd0647e60c01b6119c6565b61053e67b3fe98fff0f926bb60c01b6119c6565b6105526782123c3ba016d0af60c01b6119c6565b60055f8281526020019081526020015f205f9054906101000a900460ff166105ba5761058867b154884f2d18895e60c01b6119c6565b6040517fe66ea08f00000000000000000000000000000000000000000000000000000000815260040160405180910390fd5b6105ce677a981966decdb0b860c01b6119c6565b6105e26716a075d7ec2b184460c01b6119c6565b600160065f3373ffffffffffffffffffffffffffffffffffffffff1673ffffffffffffffffffffffffffffffffffffffff1681526020019081526020015f205f6101000a81548160ff02191690831515021790555061064b6762c3199593eec3f760c01b6119c6565b8060075f3373ffffffffffffffffffffffffffffffffffffffff1673ffffffffffffffffffffffffffffffffffffffff1681526020019081526020015f20819055506106a1678b16c90e14239b3360c01b6119c6565b60045f8281526020019081526020015f205f8154809291906106c290611cff565b91905055506106db67a358a0ff456653c660c01b6119c6565b6106ef6797627cf23035b51860c01b6119c6565b803373ffffffffffffffffffffffffffffffffffffffff167fea66f58e474bc09f580000e81f31b334d171db387d0c6098ba47bd897741679b426040516107369190611b7e565b60405180910390a350565b61075567c39248507c8e9f8e60c01b6119c6565b6107696780df53e6fe58572960c01b6119c6565b61077d67bb7785ed0260bdb660c01b6119c6565b610791676a9bd73808f1525f60c01b6119c6565b5f8054906101000a900473ffffffffffffffffffffffffffffffffffffffff1673ffffffffffffffffffffffffffffffffffffffff163373ffffffffffffffffffffffffffffffffffffffff1614610829576107f76776c8feade38cb70060c01b6119c6565b6040517f30cd747100000000000000000000000000000000000000000000000000000000815260040160405180910390fd5b61083d67eb8f70b860efc86d60c01b6119c6565b610851673eb89a36a3cb849b60c01b6119c6565b6108656731d4673a16fecaf460c01b6119c6565b61087967be081e6da89bdb6c60c01b6119c6565b61088d67be2d2ebe2c4b530960c01b6119c6565b6108a1675c82adbd420bc77560c01b6119c6565b5f60028111156108b4576108b3611ae3565b5b5f60149054906101000a900460ff1660028111156108d5576108d4611ae3565b5b14610920576108ee67c94fceea75654b4560c01b6119c6565b6040517fbaf3f0f700000000000000000000000000000000000000000000000000000000815260040160405180910390fd5b610934671cf5a21e56035cef60c01b6119c6565b6109486745c152873bb566fb60c01b6119c6565b61095c67c895a5e37e5e6e6560c01b6119c6565b60055f8281526020019081526020015f205f9054906101000a900460ff166109c45761099267d8715293ac15619e60c01b6119c6565b6040517fe66ea08f00000000000000000000000000000000000000000000000000000000815260040160405180910390fd5b6109d86783411bbfb01f515860c01b6119c6565b6109ec6748990220386e10f760c01b6119c6565b5f60055f8381526020019081526020015f205f6101000a81548160ff021916908315150217905550610a2867bc72f27e427cab6960c01b6119c6565b60025f815480929190610a3a90611d46565b9190505550610a536765a8306eecf9747660c01b6119c6565b610a6767e42cf07955f2d55a60c01b6119c6565b807f294c5a9bc8a39e6e06502bc8da429980f6c7b0990d75b682c12cb8705e3ace8560405160405180910390a250565b6006602052805f5260405f205f915054906101000a900460ff1681565b5f610ac9679a40cc20c60b7a5360c01b6119c6565b610add67df8666938cfcd75d60c01b6119c6565b610af1670b1f6e219d1f218260c01b6119c6565b60016002811115610b0557610b04611ae3565b5b5f60149054906101000a900460ff166002811115610b2657610b25611ae3565b5b148015610b3557506001544210155b15610b7f57610b4e67685a85667bfa66a660c01b6119c6565b610b62673703f290161a7bee60c01b6119c6565b610b7667d0f85f3970b3416f60c01b6119c6565b60029050610bcd565b610b93672bba7c1a5134d12a60c01b6119c6565b610ba767a1b187dc34652fdd60c01b6119c6565b610bbb67203e58c51e54f61c60c01b6119c6565b5f60149054906101000a900460ff1690505b90565b60015481565b610bea677b6b97b53425eb6f60c01b6119c6565b610bfe6780df53e6fe58572960c01b6119c6565b610c1267bb7785ed0260bdb660c01b6119c6565b610c26676a9bd73808f1525f60c01b6119c6565b5f8054906101000a900473ffffffffffffffffffffffffffffffffffffffff1673ffffffffffffffffffffffffffffffffffffffff163373ffffffffffffffffffffffffffffffffffffffff1614610cbe57610c8c6776c8feade38cb70060c01b6119c6565b6040517f30cd747100000000000000000000000000000000000000000000000000000000815260040160405180910390fd5b610cd267eb8f70b860efc86d60c01b6119c6565b610ce6673eb89a36a3cb849b60c01b6119c6565b610cfa67f7f7d5336651489060c01b6119c6565b610d0e67c69b6beaf60da30060c01b6119c6565b610d2267baa12bee37b748fb60c01b6119c6565b610d3667db64a57b3dcfad7160c01b6119c6565b5f6002811115610d4957610d48611ae3565b5b5f60149054906101000a900460ff166002811115610d6a57610d69611ae3565b5b14610db557610d8367e19e6f64ba156c9e60c01b6119c6565b6040517fbaf3f0f700000000000000000000000000000000000000000000000000000000815260040160405180910390fd5b610dc967875548ffd4765d7060c01b6119c6565b610ddd67b0d43083e1f0d32260c01b6119c6565b610df167c75525199c9c0d3f60c01b6119c6565b600280541015610e4157610e0f679b2a7aef8d21dff460c01b6119c6565b6040517f1217258500000000000000000000000000000000000000000000000000000000815260040160405180910390fd5b610e5567c535f1c091f541ae60c01b6119c6565b610e6967b2f20fd7159b7a0f60c01b6119c6565b610e7d67a08771fa1af1844260c01b6119c6565b428111610eca57610e9867ac8ea0e23950ca2560c01b6119c6565b6040517f72e54d4d00000000000000000000000000000000000000000000000000000000815260040160405180910390fd5b610ede679bc63181d53a815c60c01b6119c6565b610ef26716761e2ec2669ff160c01b6119c6565b60015f60146101000a81548160ff02191690836002811115610f1757610f16611ae3565b5b0217905550610f306730c3aa0d40c5b5de60c01b6119c6565b80600181905550610f4b67e9d42e99b47af75860c01b6119c6565b610f5f670eb043269bd897b760c01b6119c6565b7fcf33babc496bb6dc2942b39cb7b75766bbbadf7da50d176ff8c513e99114023981604051610f8e9190611b7e565b60405180910390a150565b606080610fb06786086175b26919c760c01b6119c6565b610fc46797a2e0bfaf17e65e60c01b6119c6565b610fd86740b9bf9b29bd013460c01b6119c6565b5f610fed67574c7d5c6219393360c01b6119c6565b611001678c4b80dba1f4d00c60c01b6119c6565b5f5b6003548110156110a15761102167e09559a454c9980b60c01b6119c6565b611035679bdcd064f78b33dd60c01b6119c6565b60055f8281526020019081526020015f205f9054906101000a900460ff161561107f5761106c6730dd7511f90dddf560c01b6119c6565b818061107790611cff565b925050611094565b61109367ba34c5c8db8fb66a60c01b6119c6565b5b8080600101915050611003565b506110b667f44ecd9707ea3b2960c01b6119c6565b8067ffffffffffffffff8111156110d0576110cf611d6d565b5b6040519080825280602002602001820160405280156110fe5781602001602082028036833780820191505090505b509250611115677b164b1e8d2669f860c01b6119c6565b8067ffffffffffffffff81111561112f5761112e611d6d565b5b60405190808252806020026020018201604052801561115d5781602001602082028036833780820191505090505b50915061117467e614dddbab175ba460c01b6119c6565b61118867074058bf0266f0d960c01b6119c6565b5f61119d67b9b2eb2bd1abf72d60c01b6119c6565b6111b167157e78facd455ed760c01b6119c6565b5f5b6003548110156112de576111d167d8c6d146a5c5c09160c01b6119c6565b6111e567aa8f4b680360888060c01b6119c6565b60055f8281526020019081526020015f205f9054906101000a900460ff16156112bc5761121c67ab6a22aea530408460c01b6119c6565b61123067fcc592ba531c39ad60c01b6119c6565b8085838151811061124457611243611d9a565b5b602002602001018181525050611264670202daf92728113b60c01b6119c6565b60045f8281526020019081526020015f205484838151811061128957611288611d9a565b5b6020026020010181815250506112a967d7904633b67ed27260c01b6119c6565b81806112b490611cff565b9250506112d1565b6112d067063edfca1f9ed40a60c01b6119c6565b5b80806001019150506111b3565b5050509091565b6004602052805f5260405f205f915090505481565b61130e67a450683a9838017160c01b6119c6565b6113226780df53e6fe58572960c01b6119c6565b61133667bb7785ed0260bdb660c01b6119c6565b61134a676a9bd73808f1525f60c01b6119c6565b5f8054906101000a900473ffffffffffffffffffffffffffffffffffffffff1673ffffffffffffffffffffffffffffffffffffffff163373ffffffffffffffffffffffffffffffffffffffff16146113e2576113b06776c8feade38cb70060c01b6119c6565b6040517f30cd747100000000000000000000000000000000000000000000000000000000815260040160405180910390fd5b6113f667eb8f70b860efc86d60c01b6119c6565b61140a673eb89a36a3cb849b60c01b6119c6565b61141e6740fcaf0398c1ab1460c01b6119c6565b61143267bdb0fdfbd5ab0b4160c01b6119c6565b61144667c8d9f2f8f080e93560c01b6119c6565b61145a67338c37c4e5e8fef160c01b6119c6565b5f600281111561146d5761146c611ae3565b5b5f60149054906101000a900460ff16600281111561148e5761148d611ae3565b5b146114d9576114a767a54c01e611cc3bfc60c01b6119c6565b6040517fbaf3f0f700000000000000000000000000000000000000000000000000000000815260040160405180910390fd5b6114ed67f4b7bbcfba2aa2af60c01b6119c6565b61150167583aa9c913a9908360c01b6119c6565b6115156736dfa60fb647b0b360c01b6119c6565b5f600354905061152f677c740e6f5ef6a05360c01b6119c6565b60035f81548092919061154190611cff565b919050555061155a671bc18e46dd38b7b560c01b6119c6565b600160055f8381526020019081526020015f205f6101000a81548160ff021916908315150217905550611597679714ec2e6a66409f60c01b6119c6565b60025f8154809291906115a990611cff565b91905055506115c267964c4e9f05bffced60c01b6119c6565b6115d667d8170e2c790788da60c01b6119c6565b807fac8b2f02b2377999497876aaaf22092e9c545b35ce940fdbf7f0e97b5ece393660405160405180910390a250565b6005602052805f5260405f205f915054906101000a900460ff1681565b5f8061163967b2df23e1978a3e6360c01b6119c6565b61164d6730ef22792e241a0260c01b6119c6565b611661674ac983cb69b9cc9b60c01b6119c6565b60065f3373ffffffffffffffffffffffffffffffffffffffff1673ffffffffffffffffffffffffffffffffffffffff1681526020019081526020015f205f9054906101000a900460ff1660075f3373ffffffffffffffffffffffffffffffffffffffff1673ffffffffffffffffffffffffffffffffffffffff1681526020019081526020015f2054915091509091565b5f8054906101000a900473ffffffffffffffffffffffffffffffffffffffff1681565b60025481565b61172e679d39662c77c9cf8d60c01b6119c6565b6117426780df53e6fe58572960c01b6119c6565b61175667bb7785ed0260bdb660c01b6119c6565b61176a676a9bd73808f1525f60c01b6119c6565b5f8054906101000a900473ffffffffffffffffffffffffffffffffffffffff1673ffffffffffffffffffffffffffffffffffffffff163373ffffffffffffffffffffffffffffffffffffffff1614611802576117d06776c8feade38cb70060c01b6119c6565b6040517f30cd747100000000000000000000000000000000000000000000000000000000815260040160405180910390fd5b61181667eb8f70b860efc86d60c01b6119c6565b61182a673eb89a36a3cb849b60c01b6119c6565b61183e6741b0a515d82b528560c01b6119c6565b61185267ee47e19f7feb90d160c01b6119c6565b61186667e839530f4fb18ccd60c01b6119c6565b61187a67eaeb9f2fb32afad160c01b6119c6565b6001600281111561188e5761188d611ae3565b5b5f60149054906101000a900460ff1660028111156118af576118ae611ae3565b5b146118fa576118c867cce19d0df8d849fc60c01b6119c6565b6040517fbaf3f0f700000000000000000000000000000000000000000000000000000000815260040160405180910390fd5b61190e6786c3af6b4396520c60c01b6119c6565b61192267c863c224a3e0ece460c01b6119c6565b60025f60146101000a81548160ff0219169083600281111561194757611946611ae3565b5b0217905550611960671e599ae79f1f3a2660c01b6119c6565b61197467ed0d7dd94477f38d60c01b6119c6565b7f74e0b2978c99ca20b757f0f8b458fc435f508ea64c542132a673e898b96f535d6040516119a190611e21565b60405180910390a1565b60035481565b6007602052805f5260405f205f915090505481565b50565b5f80fd5b5f819050919050565b6119df816119cd565b81146119e9575f80fd5b50565b5f813590506119fa816119d6565b92915050565b5f60208284031215611a1557611a146119c9565b5b5f611a22848285016119ec565b91505092915050565b5f73ffffffffffffffffffffffffffffffffffffffff82169050919050565b5f611a5482611a2b565b9050919050565b611a6481611a4a565b8114611a6e575f80fd5b50565b5f81359050611a7f81611a5b565b92915050565b5f60208284031215611a9a57611a996119c9565b5b5f611aa784828501611a71565b91505092915050565b5f8115159050919050565b611ac481611ab0565b82525050565b5f602082019050611add5f830184611abb565b92915050565b7f4e487b71000000000000000000000000000000000000000000000000000000005f52602160045260245ffd5b60038110611b2157611b20611ae3565b5b50565b5f819050611b3182611b10565b919050565b5f611b4082611b24565b9050919050565b611b5081611b36565b82525050565b5f602082019050611b695f830184611b47565b92915050565b611b78816119cd565b82525050565b5f602082019050611b915f830184611b6f565b92915050565b5f81519050919050565b5f82825260208201905092915050565b5f819050602082019050919050565b611bc9816119cd565b82525050565b5f611bda8383611bc0565b60208301905092915050565b5f602082019050919050565b5f611bfc82611b97565b611c068185611ba1565b9350611c1183611bb1565b805f5b83811015611c41578151611c288882611bcf565b9750611c3383611be6565b925050600181019050611c14565b5085935050505092915050565b5f6040820190508181035f830152611c668185611bf2565b90508181036020830152611c7a8184611bf2565b90509392505050565b5f604082019050611c965f830185611abb565b611ca36020830184611b6f565b9392505050565b611cb381611a4a565b82525050565b5f602082019050611ccc5f830184611caa565b92915050565b7f4e487b71000000000000000000000000000000000000000000000000000000005f52601160045260245ffd5b5f611d09826119cd565b91507fffffffffffffffffffffffffffffffffffffffffffffffffffffffffffffffff8203611d3b57611d3a611cd2565b5b600182019050919050565b5f611d50826119cd565b91505f8203611d6257611d61611cd2565b5b600182039050919050565b7f4e487b71000000000000000000000000000000000000000000000000000000005f52604160045260245ffd5b7f4e487b71000000000000000000000000000000000000000000000000000000005f52603260045260245ffd5b5f82825260208201905092915050565b7f6d616e75616c00000000000000000000000000000000000000000000000000005f82015250565b5f611e0b600683611dc7565b9150611e1682611dd7565b602082019050919050565b5f6020820190508181035f830152611e3881611dff565b905091905056fea26469706673582212208b6600d592677b699535b6640bef51a18e9b866c49cba402a012fdaed8187c7c64736f6c63430008180033",
  "linkReferences": {},
  "deployedLinkReferences": {}
}